:100000000C942A000C943F000C943F000C943F0089
:100010000C943F000C943F000C943F000C943F0064
:100020000C943F000C943F000C943F000C943F0054
:100030000C943F000C943F000C943F000C943F0044
:100040000C943F000C943F000C943F000C943F0034
:100050000C943F0011241FBECFE5D8E0DEBFCDBF1A
:1000600010E0A0E6B0E0EEE6F4E002C005900D92EC
:10007000AE37B107D9F70E94E8000C9435020C9412
:1000800000000F931F93CF93DF93C0E0D0E01DC01B
:10009000CE01880F991F880F991F880F991FFE01A5
:1000A000EE0FFF1FE80FF91FE05AFF4FE00FF11F9F
:1000B00060E081810E9491010F5F1F4F02C000E04C
:1000C00010E00830110524F32196C230D105BCF3AD
:1000D000DF91CF911F910F910895FF920F931F937E
:1000E000CF93DF93EC0100E068C09E01ADECBCEC67
:1000F0000E942602AC015695479556954795569510
:100100004795CA01880F991F440F551F440F551F6B
:10011000440F551F480F591FCE01841B950BAC018E
:100120000E942602EC01D695C795D695C795D6951F
:10013000C7955527FA01EC58FF4FF08010E03AC000
:10014000212F30E04F2D50E0012E02C055954795EC
:100150000A94E2F74170802F90E0FC01EE0FFF1F40
:10016000BC01660F771F660F771F660F771FE60FBC
:10017000F71FE05AFF4F5185511104C051E0411162
:1001800050E0452FBC01660F771F880F991F880F1D
:10019000991F880F991F860F971F805A9F4FFC0148
:1001A000E20FF31F8181682F6F7082958F700E941C
:1001B000F8001F5F183020F20F5F209719F002300F
:1001C00008F493CFDF91CF911F910F91FF90089585
:1001D0000E94410087E390E00E946D002FE38DE0D4
:1001E00093E0215080409040E1F700C00000F2CF42
:1001F000843008F086C0683008F085C0423008F0CE
:1002000084C0813031F138F0823009F440C083304D
:1002100009F45AC07CC041110DC02BB381E090E0BD
:1002200002C0880F991F6A95E2F7809582238BBBE5
:1002300080E00895413009F06CC02BB381E090E07C
:1002400002C0880F991F6A95E2F7822B8BBB80E072
:10025000089541110DC028B381E090E002C0880FDD
:10026000991F6A95E2F78095822388BB80E0089504
:10027000413009F050C028B381E090E002C0880FFF
:10028000991F6A95E2F7822B88BB80E0089541119F
:100290000DC025B381E090E002C0880F991F6A95D8
:1002A000E2F78095822385BB80E008954130A9F56F
:1002B00025B381E090E002C0880F991F6A95E2F7AC
:1002C000822B85BB80E0089541110DC022B381E0EF
:1002D00090E002C0880F991F6A95E2F7809582230B
:1002E00082BB80E008954130D1F422B381E090E0F8
:1002F00002C0880F991F6A95E2F7822B82BB80E0CB
:10030000089584E0089585E0089582E0089580E0EE
:10031000089580E0089580E0089580E0089580E0E9
:100320000895982F92959F708F70943008F08DC02B
:10033000883008F08AC0623008F087C0913041F1FF
:1003400038F0923009F444C0933009F460C0089545
:1003500061110DC04AB321E030E0B90102C0660F5F
:10036000771F8A95E2F7CB01842B8ABB0895613011
:1003700009F06BC04AB321E030E0B90102C0660F5A
:10038000771F8A95E2F7CB01809584238ABB089575
:1003900061110DC047B321E030E0B90102C0660F22
:1003A000771F8A95E2F7CB01842B87BB08956130D4
:1003B00009F04BC047B321E030E0B90102C0660F3D
:1003C000771F8A95E2F7CB018095842387BB089538
:1003D00061110DC044B321E030E0B90102C0660FE5
:1003E000771F8A95E2F7CB01842B84BB0895613097
:1003F00061F544B321E030E0B90102C0660F771F18
:100400008A95E2F7CB018095842384BB089561111E
:100410000DC041B321E030E0B90102C0660F771F83
:100420008A95E2F7CB01842B81BB0895613069F492
:1004300041B321E030E0B90102C0660F771F8A9511
:10044000E2F7CB018095842381BB0895A29FB00180
:10045000B39FC001A39F700D811D1124911DB29FF8
:0E046000700D811D1124911D0895F894FFCF99
:10046E000000010203040506070101101112131406
:0E047E00151617013F065B4F666D7D077F6FF9
:00000001FF
