:100000000C942A000C943F000C943F000C943F0089
:100010000C943F000C943F000C943F000C943F0064
:100020000C943F000C943F000C943F000C943F0054
:100030000C943F000C943F000C943F000C943F0044
:100040000C943F000C943F000C943F000C943F0034
:100050000C943F0011241FBECFE5D8E0DEBFCDBF1A
:1000600010E0A0E6B0E0E4EBF5E002C005900D92F0
:10007000A438B107D9F70E9489010C94D8020C94D6
:1000800000000F931F93CF93DF938C01E0E6F0E025
:100090006181D62FD295DF70C62FCF708281682FF5
:1000A0006F7040E082958F700E94AA0141E06C2F32
:1000B0008D2F0E94AA01C0E0D0E013C0A8010C2E31
:1000C00002C0569547950A94E2F74170FE01E05A46
:1000D000FF4F8481682F6F7082958F700E94AA01F4
:1000E0002196C830D10554F3C0916300DC2FD2951E
:1000F000DF70CF7041E06C2F8D2F0E94AA010000AD
:1001000040E06C2F8D2F0E94AA01DF91CF911F91AB
:100110000F9108950F931F93CF93DF938C01E0E627
:10012000F0E06181D62FD295DF70C62FCF7082812B
:10013000682F6F7040E082958F700E94AA0140E0A6
:100140006C2F8D2F0E94AA01C0E0D0E013C0A8013F
:100150000C2E02C0569547950A94E2F74170FE01B5
:10016000E05AFF4F8481682F6F7082958F700E94D4
:10017000AA012196C830D10554F3C0916300DC2F49
:10018000D295DF70CF7041E06C2F8D2F0E94AA01B5
:10019000000040E06C2F8D2F0E94AA01DF91CF91CB
:1001A0001F910F910895CF93DF93C0E6D0E060E0F8
:1001B00089810E94430260E08A810E94430260E0DC
:1001C0008B810E944302C0E0D0E008C0FE01E05AEB
:1001D000FF4F60E084810E9443022196C830D10520
:1001E000ACF38BE49DE10197F1F700C0000088E3D8
:1001F00090E00E948A0089EF90E00197F1F700C03B
:1002000000008FE090E00E948A0089EF90E0019763
:10021000F1F700C0000081E090E00E948A0083EFC7
:1002200091E00197F1F700C0000086E090E00E94A5
:100230008A00DF91CF910895813029F0823011F446
:10024000605C01C060E0862F90E080589F4F0E9464
:100250008A000895880F880F880F90E0805C9F4F78
:100260000E948A0008950F931F93CF93DF938B0111
:100270000E942A01C0E0D0E008C0F801EC0FFD1F89
:10028000808190E00E9441002196C830D105ACF3F6
:10029000DF91CF911F910F9108951F93CF93DF931B
:1002A000C62FD42F122F683068F4BC018C2F0E9407
:1002B0003301612F8D2F0E941C018C2F90E00E9432
:1002C00041000CC088EF860F873F40F4622F842FD7
:1002D0000E941C018C2F90E00E944100DF91CF9181
:1002E0001F9108950F931F93CF93DF938C01C0E06C
:1002F000D0E004C090E00E9441002196F801EC0F8C
:10030000FD1F80818111F6CFDF91CF911F910F9159
:100310000895CF93DF93CDB7DEB728970FB6F89443
:10032000DEBF0FBECDBF88E0ECE6F0E0DE01119647
:1003300001900D928A95E1F70E94D30084E790E046
:100340000E94720120E042E060E0CE0101960E942E
:100350004D01FFCF843008F086C0683008F085C0BA
:10036000423008F084C0813031F138F0823009F435
:1003700040C0833009F45AC07CC041110DC02BB37A
:1003800081E090E002C0880F991F6A95E2F780959E
:1003900082238BBB80E00895413009F06CC02BB301
:1003A00081E090E002C0880F991F6A95E2F7822BE6
:1003B0008BBB80E0089541110DC028B381E090E02F
:1003C00002C0880F991F6A95E2F78095822388BB47
:1003D00080E00895413009F050C028B381E090E0FA
:1003E00002C0880F991F6A95E2F7822B88BB80E0D4
:1003F000089541110DC025B381E090E002C0880F3F
:10040000991F6A95E2F78095822385BB80E0089565
:100410004130A9F525B381E090E002C0880F991F13
:100420006A95E2F7822B85BB80E0089541110DC0EB
:1004300022B381E090E002C0880F991F6A95E2F72D
:100440008095822382BB80E008954130D1F422B3AD
:1004500081E090E002C0880F991F6A95E2F7822B35
:1004600082BB80E0089584E0089585E0089582E0ED
:10047000089580E0089580E0089580E0089580E088
:10048000089580E00895982F92959F708F70943012
:1004900008F08DC0883008F08AC0623008F087C04C
:1004A000913041F138F0923009F444C0933009F4AE
:1004B00060C0089561110DC04AB321E030E0B90178
:1004C00002C0660F771F8A95E2F7CB01842B8ABBA7
:1004D0000895613009F06BC04AB321E030E0B90102
:1004E00002C0660F771F8A95E2F7CB0180958423BF
:1004F0008ABB089561110DC047B321E030E0B90116
:1005000002C0660F771F8A95E2F7CB01842B87BB69
:100510000895613009F04BC047B321E030E0B901E4
:1005200002C0660F771F8A95E2F7CB01809584237E
:1005300087BB089561110DC044B321E030E0B901DB
:1005400002C0660F771F8A95E2F7CB01842B84BB2C
:100550000895613061F544B321E030E0B90102C093
:10056000660F771F8A95E2F7CB018095842384BBC1
:10057000089561110DC041B321E030E0B90102C01E
:10058000660F771F8A95E2F7CB01842B81BB089514
:10059000613069F441B321E030E0B90102C0660F77
:1005A000771F8A95E2F7CB018095842381BB08955C
:0405B000F894FFCFED
:1005B400000001021011121314151617000A151168
:1005C400110A0400546869732069732059617261C7
:0405D400203A2900A0
:00000001FF
