:100000000C942A000C943F000C943F000C943F0089
:100010000C943F000C943F000C943F000C943F0064
:100020000C943F000C943F000C943F000C943F0054
:100030000C943F000C943F000C943F000C943F0044
:100040000C943F000C943F000C943F000C943F0034
:100050000C943F0011241FBECFE5D8E0DEBFCDBF1A
:1000600010E0A0E6B0E0EAEFF3E002C005900D92E8
:10007000A03AB107D9F70E9441000C94FB010C94FF
:100080000000CF93DF9300D01F92CDB7DEB70E9460
:10009000E001AE014F5F5F4F63E080E00E9410011E
:1000A000498160E080E00E947700AE014E5F5F4FC3
:1000B00064E080E00E9410014A8161E080E00E94DB
:1000C0007700AE014D5F5F4F65E080E00E94100158
:1000D0004B8162E080E00E9477002FE38DE093E0A7
:1000E000215080409040E1F700C00000D2CF843022
:1000F00008F086C0683008F085C0423008F084C03F
:10010000813031F138F0823009F440C0833009F495
:100110005AC07CC041110DC02BB381E090E002C0F9
:10012000880F991F6A95E2F7809582238BBB80E048
:100130000895413009F06CC02BB381E090E002C01B
:10014000880F991F6A95E2F7822B8BBB80E0089598
:1001500041110DC028B381E090E002C0880F991FC3
:100160006A95E2F78095822388BB80E0089541304C
:1001700009F050C028B381E090E002C0880F991FB9
:100180006A95E2F7822B88BB80E0089541110DC08B
:1001900025B381E090E002C0880F991F6A95E2F7CD
:1001A0008095822385BB80E008954130A9F525B371
:1001B00081E090E002C0880F991F6A95E2F7822BD8
:1001C00085BB80E0089541110DC022B381E090E02D
:1001D00002C0880F991F6A95E2F78095822382BB3F
:1001E00080E008954130D1F422B381E090E002C074
:1001F000880F991F6A95E2F7822B82BB80E00895F1
:1002000084E0089585E0089582E0089580E00895EF
:1002100080E0089580E0089580E0089580E00895EA
:100220008430C0F56830B0F54115510599F1813041
:1002300089F028F08230C9F0833011F1089589B334
:1002400090E002C0959587956A95E2F78170FA0172
:100250008083089586B390E002C0959587956A954E
:10026000E2F78170FA018083089583B390E002C0C1
:10027000959587956A95E2F78170FA0180830895D4
:1002800080B390E002C0959587956A95E2F78170FA
:10029000FA0180830895982F92959F708F70943003
:1002A00008F08DC0883008F08AC0623008F087C03E
:1002B000913041F138F0923009F444C0933009F4A0
:1002C00060C0089561110DC04AB321E030E0B9016A
:1002D00002C0660F771F8A95E2F7CB01842B8ABB99
:1002E0000895613009F06BC04AB321E030E0B901F4
:1002F00002C0660F771F8A95E2F7CB0180958423B1
:100300008ABB089561110DC047B321E030E0B90107
:1003100002C0660F771F8A95E2F7CB01842B87BB5B
:100320000895613009F04BC047B321E030E0B901D6
:1003300002C0660F771F8A95E2F7CB018095842370
:1003400087BB089561110DC044B321E030E0B901CD
:1003500002C0660F771F8A95E2F7CB01842B84BB1E
:100360000895613061F544B321E030E0B90102C085
:10037000660F771F8A95E2F7CB018095842384BBB3
:10038000089561110DC041B321E030E0B90102C010
:10039000660F771F8A95E2F7CB01842B81BB089506
:1003A000613069F441B321E030E0B90102C0660F69
:1003B000771F8A95E2F7CB018095842381BB08954E
:1003C000CF93C0E014C09C2F9695969596958C2F50
:1003D0008770EC2FF0E0EE0FFF1FE05AFF4F6081B7
:1003E00020E1929F800D11240E944B01CF5FC0320B
:0A03F00050F3CF910895F894FFCF69
:1003FA0000020002000201010101010100020002E3
:10040A0000020002010101010100000200020101D3
:10041A0000020002000201000002010000020002C4
:10042A0001010002010001010101000200020002B3
:00000001FF
