:100000000C942A000C943F000C943F000C943F0089
:100010000C943F000C943F000C943F000C943F0064
:100020000C943F000C943F000C943F000C943F0054
:100030000C943F000C943F000C943F000C943F0044
:100040000C943F000C943F000C943F000C943F0034
:100050000C943F0011241FBECFE5D8E0DEBFCDBF1A
:1000600010E0A0E6B0E0E4E0F4E002C005900D92FC
:10007000AE37B107D9F70E94BE000C9400020C9471
:1000800000000F931F93CF93DF93C0E0D0E01DC01B
:10009000CE01880F991F880F991F880F991FFE01A5
:1000A000EE0FFF1FE80FF91FE05AFF4FE00FF11F9F
:1000B00060E081810E946B010F5F1F4F02C000E072
:1000C00010E00830110524F32196C230D105BCF3AD
:1000D000DF91CF911F910F9108951F93CF93DF93DD
:1000E000823008F047C06A3008F044C0D82FE62FAD
:1000F000F0E0EC58FF4F1081C0E03AC06C2F70E088
:10010000412F50E00C2E02C0559547950A94E2F716
:1001100041702D2F30E0F901EE0FFF1FC901880F4C
:10012000991F880F991F880F991FE80FF91FE05A30
:10013000FF4F8185811104C081E0411180E0482F8B
:10014000C901880F991F220F331F220F331F220F5F
:10015000331F280F391F205A3F4FF901E60FF71FB1
:100160008181682F6F7082958F700E94D200CF5F5F
:10017000C83020F2DF91CF911F9108950E94410075
:1001800065E080E00E946D0063E081E00E946D0008
:100190002FE38DE093E0215080409040E1F700C0D4
:1001A0000000EECF843008F086C0683008F085C0CB
:1001B000423008F084C0813031F138F0823009F4E7
:1001C00040C0833009F45AC07CC041110DC02BB32C
:1001D00081E090E002C0880F991F6A95E2F7809550
:1001E00082238BBB80E00895413009F06CC02BB3B3
:1001F00081E090E002C0880F991F6A95E2F7822B98
:100200008BBB80E0089541110DC028B381E090E0E0
:1002100002C0880F991F6A95E2F78095822388BBF8
:1002200080E00895413009F050C028B381E090E0AB
:1002300002C0880F991F6A95E2F7822B88BB80E085
:10024000089541110DC025B381E090E002C0880FF0
:10025000991F6A95E2F78095822385BB80E0089517
:100260004130A9F525B381E090E002C0880F991FC5
:100270006A95E2F7822B85BB80E0089541110DC09D
:1002800022B381E090E002C0880F991F6A95E2F7DF
:100290008095822382BB80E008954130D1F422B35F
:1002A00081E090E002C0880F991F6A95E2F7822BE7
:1002B00082BB80E0089584E0089585E0089582E09F
:1002C000089580E0089580E0089580E0089580E03A
:1002D000089580E00895982F92959F708F709430C4
:1002E00008F08DC0883008F08AC0623008F087C0FE
:1002F000913041F138F0923009F444C0933009F460
:1003000060C0089561110DC04AB321E030E0B90129
:1003100002C0660F771F8A95E2F7CB01842B8ABB58
:100320000895613009F06BC04AB321E030E0B901B3
:1003300002C0660F771F8A95E2F7CB018095842370
:100340008ABB089561110DC047B321E030E0B901C7
:1003500002C0660F771F8A95E2F7CB01842B87BB1B
:100360000895613009F04BC047B321E030E0B90196
:1003700002C0660F771F8A95E2F7CB018095842330
:1003800087BB089561110DC044B321E030E0B9018D
:1003900002C0660F771F8A95E2F7CB01842B84BBDE
:1003A0000895613061F544B321E030E0B90102C045
:1003B000660F771F8A95E2F7CB018095842384BB73
:1003C000089561110DC041B321E030E0B90102C0D0
:1003D000660F771F8A95E2F7CB01842B81BB0895C6
:1003E000613069F441B321E030E0B90102C0660F29
:1003F000771F8A95E2F7CB018095842381BB08950E
:04040000F894FFCF9E
:100404000000010203040506070101101112131470
:0E041400151617013F065B4F666D7D077F6F63
:00000001FF
