:100000000C942A000C943F000C943F000C943F0089
:100010000C943F000C943F000C943F000C943F0064
:100020000C943F000C943F000C943F000C943F0054
:100030000C943F000C943F000C943F000C943F0044
:100040000C943F000C943F000C943F000C943F0034
:100050000C943F0011241FBECFE5D8E0DEBFCDBF1A
:1000600010E0A0E6B0E0E4EBF4E002C005900D92F1
:10007000A237B107D9F70E94BD000C9458020C9426
:100080000000CF93DF93C0E0D0E011C0FE01EE0F7F
:10009000FF1FEC0FFD1FE05AFF4F9081818160E050
:1000A00020E1929F800D11240E94C3012196C3304C
:1000B000D10564F3DF91CF910895843060F562300B
:1000C00060F590E0FC01EE0FFF1FE80FF91FE05A0A
:1000D000FF4F228121110FC0FC01EE0FFF1F8E0F79
:1000E0009F1FFC01E05AFF4F8181462F682F8081BE
:1000F0000E94EF00089541E0611140E0FC01EE0F25
:10010000FF1F8E0F9F1FFC01E05AFF4F618180810E
:100110000E94EF00089582E0089585E00895CF934E
:10012000DF93C0E0D0E011C0FE01EE0FFF1FEC0F27
:10013000FD1FE759FF4F9081818161E020E1929F8F
:10014000800D11240E94C3012196C330D10564F3B0
:10015000DF91CF910895843070F4AB0190E0FC0101
:10016000EE0FFF1FE80FF91FE759FF4F61818081F4
:100170000E948801089582E00895CF93DF9300D014
:100180001F92CDB7DEB70E9441000E948F00BE01D2
:100190006F5F7F4F82E00E94AB00698182E00E9426
:1001A0005D00BE016E5F7F4F81E00E94AB006A81FF
:1001B00081E00E945D00BE016D5F7F4F80E00E9484
:1001C000AB006B8180E00E945D002FE38DE093E047
:1001D000215080409040E1F700C00000D8CF84302B
:1001E00008F086C0683008F085C0423008F084C04E
:1001F000813031F138F0823009F440C0833009F4A5
:100200005AC07CC041110DC02BB381E090E002C008
:10021000880F991F6A95E2F7809582238BBB80E057
:100220000895413009F06CC02BB381E090E002C02A
:10023000880F991F6A95E2F7822B8BBB80E00895A7
:1002400041110DC028B381E090E002C0880F991FD2
:100250006A95E2F78095822388BB80E0089541305B
:1002600009F050C028B381E090E002C0880F991FC8
:100270006A95E2F7822B88BB80E0089541110DC09A
:1002800025B381E090E002C0880F991F6A95E2F7DC
:100290008095822385BB80E008954130A9F525B380
:1002A00081E090E002C0880F991F6A95E2F7822BE7
:1002B00085BB80E0089541110DC022B381E090E03C
:1002C00002C0880F991F6A95E2F78095822382BB4E
:1002D00080E008954130D1F422B381E090E002C083
:1002E000880F991F6A95E2F7822B82BB80E0089500
:1002F00084E0089585E0089582E0089580E00895FF
:1003000080E0089580E0089580E0089580E00895F9
:100310008430C0F56830B0F54115510599F1813050
:1003200089F028F08230C9F0833011F1089589B343
:1003300090E002C0959587956A95E2F78170FA0181
:100340008083089586B390E002C0959587956A955D
:10035000E2F78170FA018083089583B390E002C0D0
:10036000959587956A95E2F78170FA0180830895E3
:1003700080B390E002C0959587956A95E2F7817009
:10038000FA0180830895982F92959F708F70943012
:1003900008F08DC0883008F08AC0623008F087C04D
:1003A000913041F138F0923009F444C0933009F4AF
:1003B00060C0089561110DC04AB321E030E0B90179
:1003C00002C0660F771F8A95E2F7CB01842B8ABBA8
:1003D0000895613009F06BC04AB321E030E0B90103
:1003E00002C0660F771F8A95E2F7CB0180958423C0
:1003F0008ABB089561110DC047B321E030E0B90117
:1004000002C0660F771F8A95E2F7CB01842B87BB6A
:100410000895613009F04BC047B321E030E0B901E5
:1004200002C0660F771F8A95E2F7CB01809584237F
:1004300087BB089561110DC044B321E030E0B901DC
:1004400002C0660F771F8A95E2F7CB01842B84BB2D
:100450000895613061F544B321E030E0B90102C094
:10046000660F771F8A95E2F7CB018095842384BBC2
:10047000089561110DC041B321E030E0B90102C01F
:10048000660F771F8A95E2F7CB01842B81BB089515
:10049000613069F441B321E030E0B90102C0660F78
:1004A000771F8A95E2F7CB018095842381BB08955D
:0404B000F894FFCFEE
:1004B400000200000100000000000501000401002A
:0204C400030132
:00000001FF
